:100000000C946E000C9496000C9496000C94960040
:100010000C9496000C9496000C9496000C94960008
:100020000C9496000C9496000C9496000C949600F8
:100030000C9496000C9496000C9496000C949600E8
:100040000C94E2080C9496000C94E20D0C94300E83
:100050000C9496000C9496000C9496000C949600C8
:100060000C9496000C9496000000000024002700D9
:100070002A0000000000250028002B0000000000DE
:1000800023002600290004040404040404040202DA
:100090000202020203030303030301020408102007
:1000A0004080010204081020010204081020000012
:1000B0000007000201000003040600000000000029
:1000C00000007C3C3E5E2B3D3F2F5B5D3B2C2A229B
:1000D0005C00A606C6089C0FF20F9F0611241FBEE7
:1000E000CFEFD8E0DEBFCDBF11E0A0E0B1E0EAE99C
:1000F000F7E402C005900D92AC3DB107D9F715E0C9
:10010000ACEDB1E001C01D92AE36B107E1F710E0F1
:10011000CAEDD0E004C02297FE010E947123C23DC7
:10012000D107C9F70E94D20D0C94C0230C94000093
:10013000CF93DF93BC018230910510F462E070E050
:10014000A0916C05B0916D05ED0140E050E0E0E05C
:10015000F0E021C0888199818617970769F48A8128
:100160009B81309719F09383828304C090936D052F
:1001700080936C05FE0134C06817790738F4411587
:10018000510519F08417950708F4AC01FE018A8126
:100190009B819C01E9012097E9F641155105A9F1E0
:1001A000CA01861B970B049708F4BA01E0E0F0E05F
:1001B0002AC08D919C91119784179507F9F46417C3
:1001C000750781F412968D919C911397309719F0D1
:1001D0009383828304C090936D0580936C05FD0129
:1001E00032964CC0CA01861B970BFD01E80FF91F20
:1001F0006193719302978D939C9340C0FD0182811E
:1002000093819C01D9011097A1F680916A05909184
:100210006B05892B41F480918C0190918D01909315
:100220006B0580936A0540918E0150918F014115B5
:10023000510541F44DB75EB780918A0190918B01D1
:10024000481B590B20916A0530916B05CA01821B2E
:10025000930B8617970780F0AB014E5F5F4F8417B3
:10026000950750F0420F531F50936B0540936A055A
:10027000F9016193719302C0E0E0F0E0CF01DF91FA
:10028000CF910895CF93DF93009709F450C0EC010C
:1002900022971B821A82A0916C05B0916D05109770
:1002A00009F140E050E0AC17BD0708F1BB83AA8319
:1002B000FE0121913191E20FF31FAE17BF0779F4D0
:1002C0008D919C911197280F391F2E5F3F4F3983D5
:1002D000288312968D919C9113979B838A83411555
:1002E000510571F4D0936D05C0936C0520C0129632
:1002F0008D919C911397AD01009711F0DC01D3CF44
:10030000FA01D383C28321913191E20FF31FCE17FB
:10031000DF0769F488819981280F391F2E5F3F4FCD
:10032000FA01318320838A819B8193838283DF91C9
:10033000CF910895A0E0B0E0E0EAF1E00C948B23C7
:100340006C01009729F4CB010E9498006C01C1C098
:100350008EEF882E8FEF982E8C0C9D1C8601060F39
:10036000171F0815190508F4B2C0F401A081B18166
:10037000A617B707B8F0A530B10508F4AAC0CD019B
:1003800004978617970708F4A4C01297A61BB70B0B
:10039000F801A193B193D4016D937C93CF010E9496
:1003A000420197C07B01EA1AFB0AEEEFFFEFEE0E67
:1003B000FF1E36016A0E7B1EC0916C05D0916D0543
:1003C000AA24BB24442455244AC0C615D705E1F508
:1003D000488159814E155F05B8F1CA0104978E1501
:1003E0009F05B0F41296A40FB51FF401B183A0834A
:1003F0002A813B814114510431F0D20113963C9380
:100400002E93129766C030936D0520936C0561C0E2
:100410008A819B81F80193838283425050404E1918
:100420005F09518340834114510431F0D201139686
:100430001C930E93129704C010936D0500936C05E6
:10044000F4017183608345C088819981A816B9063B
:1004500008F45C012E018A819B819C01E9012097AF
:1004600009F0B3CF80916A0590916B0586159705C9
:10047000E9F4A616B706D0F420918E0130918F01D1
:100480002115310541F42DB73EB780918A01909135
:100490008B01281B390B02171307C8F410936B0547
:1004A00000936A05D4016D937C9313C0CB010E9425
:1004B0009800EC01009759F0F40140815181B60198
:1004C0000E947C02C6010E9442016E0102C0CC243F
:1004D000DD24C601CDB7DEB7E0E10C94A723FB0114
:1004E000DC0104C08D910190801921F441505040ED
:1004F000C8F7881B990B0895FB01DC0102C001902D
:100500000D9241505040D8F70895FC018191861713
:1005100021F08823D9F7992708953197CF010895BD
:10052000FB01DC0101900D920020E1F70895FB0131
:10053000DC014150504048F001900D920020C9F775
:1005400001C01D9241505040E0F70895FB019F010A
:10055000E8944230C4F04532B4F44A3029F497FBB1
:100560001EF4909581959F4F642F77270E947523E5
:10057000805D8A330CF0895D8193CB010097A1F7F0
:1005800016F45DE251931082C9010C94C702DC019C
:10059000FC01672F71917723E1F7329704C07C91BA
:1005A0006D9370836291AE17BF07C8F308950E94E0
:1005B0004608089586EF92E040E855E260E070E07A
:1005C0000E946B0E0E94B1080E94BF080E9468063C
:1005D0000E94EB02089588E193E06AE00E945712BE
:1005E000882349F486EF92E060E071E00E94780D84
:1005F00020E030E008C086EF92E067E171E00E9401
:10060000780D21E030E0C90108952F923F924F927A
:100610005F926F927F928F929F92AF92BF92CF9292
:10062000DF92EF92FF920F931F93DF93CF9300D04F
:1006300000D0CDB7DEB79C838B8300E0FBE5AF2E07
:10064000B12CA80EB91EE7E5CE2ED12CC80ED91EAE
:1006500013C0AB81BC818D919C91F601A081B181C9
:10066000A00FB11DFC01208131818B819C816C9197
:1006700042E0F90109950F5FD5018C91081748F305
:10068000EE24EB81FC81E45AFF4FFA83E98379E59C
:10069000A72EB12C8B819C81A80EB91E6BE5262E4E
:1006A000312C280E391E57E5452E512C480E591E67
:1006B0008FC0CE2CDD24AB81BC818D919C91D50166
:1006C000ED91FC91EC0DFD1DDC012D913C918B8198
:1006D0009C81608141E0F9010995EB81FC81808179
:1006E0009181D501ED91FC91EC0DFD1DDC0112967F
:1006F0002D913C9113978B819C81608140E0F901A1
:10070000099581E090E0A0E0B0E00E2C04C0880FD5
:10071000991FAA1FBB1F0A94D2F74C013C01609499
:100720007094FF242AC00F2D10E0D201ED91FC91AE
:10073000E00FF11FD90114962D913C9115978B81F3
:100740009C816081F90109959801220F331F892B43
:1007500049F4EB81FC81E20FF31F878190858829A2
:10076000992908C0EB81FC81E20FF31F87819085F6
:100770008621972190878783F394F1018081AB8153
:10078000BC812D913C91F81670F2D501ED91FC9150
:10079000EC0DFD1DD90112962D913C9113978B8183
:1007A0009C81608141E0F9010995EB81FC818081A8
:1007B0009181D501ED91FC91EC0DFD1DDC012D9198
:1007C0003C918B819C81608140E0F9010995E39423
:1007D000E981FA818081E81608F46BCF0F900F90C1
:1007E0000F900F90CF91DF911F910F91FF90EF909D
:1007F000DF90CF90BF90AF909F908F907F906F9041
:100800005F904F903F902F900895CF93DF93DC013E
:10081000862F90E0FC01EE0FFF1FEE0FFF1FE80F89
:10082000F91FEA0FFB1F468F81E0878FAF59BF4F3B
:100830008C91A156B040ED01CE59DF4F882351F085
:10084000E881F981309771F0662361F45B968C91B1
:10085000099508C0288139812115310519F0838D4A
:10086000F9010995DF91CF9108950F931F93CF93CD
:10087000DF93EC01162F042F862F90E0FC01EE0F82
:10088000FF1FEE0FFF1FE80FF91FEC0FFD1F178E64
:10089000868D8130B1F0813028F0823071F1833063
:1008A000B1F531C0413099F5CE0141E00E94050417
:1008B0000E942A09C35BDF4F688379838A839B8305
:1008C00026C00E942A09C35BDF4F288139814A81F3
:1008D0005B81621B730B840B950B629628813981B7
:1008E000CF55D04040E050E026173707480759075A
:1008F00020F4CE01612F42E008C0002341F4CE0174
:10090000612F43E002C0CE0140E00E940504DF9168
:10091000CF911F910F9108954F925F926F927F92A6
:100920008F929F92AF92BF92CF92DF92EF92FF92FF
:100930000F931F93CF93DF93EC017C01FC0190E0B8
:100940002FEF3FEF868D882321F4138E358F248F70
:10095000178E9F5F35969A30A9F7CC24EBE54E2E83
:10096000512C4C0E5D1E7CE5672E712C6C0E7D1E8D
:1009700065E5862E912C8C0E9D1E55C02D2D30E0E8
:10098000F801808191810D2C02C0969587950A947B
:10099000E2F7482F4170852F90E0A89ED001A99ED4
:1009A000B00DB89EB00D1124A20FB31FF4018081C9
:1009B00091818A0F9B1FFC012081FE0160E070E0A5
:1009C000848D958D8A179B0711F4CE011CC06F5F33
:1009D0007F4F35966A30710599F753C0FE0160E08C
:1009E00070E0838D882391F4FB01EE0FFF1FEE0F63
:1009F000FF1FE60FF71FEC0FFD1F238FB58FA48F8E
:100A0000168ECE0141E00E94350406C06F5F7F4F15
:100A100035966A30710529F7D394F3015081D516C4
:100A200008F4ACCFC394F2018081C81658F4DD24D9
:100A3000AC2CBB248501000F111F0C0F1D1F095F7B
:100A40001F4FEBCF20E090E0F701878D811121E06F
:100A50009F5F45E050E0E40EF51E9A30A9F7822F23
:100A6000DF91CF911F910F91FF90EF90DF90CF908A
:100A7000BF90AF909F908F907F906F905F904F90BE
:100A80000895442309F0AACFC7CFEF92FF921F9396
:100A9000CF93DF93EC010E942A09F1E5EF2EF12CB0
:100AA000EC0EFD1EF7012081318142815381621BD2
:100AB000730B840B950BC35ADF4F28813981CD55B9
:100AC000D04040E050E0261737074807590710F09C
:100AD00010E00EC0CE010E940503CE010E948C04DE
:100AE000182F0E942A09F701608371838283938300
:100AF000812FDF91CF911F91FF90EF9008956F921A
:100B00007F928F929F92AF92BF92CF92DF92EF929D
:100B1000FF920F931F93CF93DF93EC014B016A0178
:100B20005901702E6E2C02960E94D8088DEA91E031
:100B300099838883ABE1EA2EF12CEC0EFD1E00E0D8
:100B400010E0C701800F911F0E94DD080B5F1F4F4F
:100B500002331105B1F7C95ADF4FC992D992A99250
:100B6000B9927992688227979982888228968AE03A
:100B700090E08993999384EF91E0998388832396F9
:100B8000198218826197188219821A821B826096D4
:100B90001882DF91CF911F910F91FF90EF90DF901E
:100BA000CF90BF90AF909F908F907F906F9008955F
:100BB000862F0E945F0A0895862F642F0E940B0AD9
:100BC0000895862F642F0E94CC09089542981EBC78
:100BD0001092FE011092FD010EC0319BFECF80E00D
:100BE0000E94BA088091FD019091FE0101969093B8
:100BF000FE018093FD018091FD019091FE018851DD
:100C0000944058F30DB407FEFDCF429A0895FF9229
:100C10000F931F93182F062FF42E429A439882E0C9
:100C20000E94BA08812F0E94BA08802F0E94BA0839
:100C30008F2D0E94BA080DB407FEFDCF439A1F9175
:100C40000F91FF900895FF920F931F93182F062F77
:100C5000F42E429A439882E00E94BA086AE070E05B
:100C600080E090E00E943809812F0E94BA08802F0E
:100C70000E94BA088F2D0E94BA080DB407FEFDCF5E
:100C8000439A1F910F91FF90089580E068E044E03F
:100C90000E940706319BFECF83E068EB40E00E9494
:100CA000230687E060EC47E10E94070686E060E0EB
:100CB00040EF0E94070687E060EC40E40E940706D0
:100CC00086E060E04CE00E940706319BFECF08956D
:100CD000409864E670E080E090E00E9438098FEF71
:100CE0008EBD439A429A409A319BFECF83E068EBD7
:100CF00040E00E942306319BFECF0E94450687E01C
:100D000060EC43E10E9407068BE068E248E20E9443
:100D1000070608958130910541F46F5F7F4F71F4AC
:100D200082EE91E00E9482120895892B39F46F5F60
:100D30007F4F21F482EE91E00E949512089580E0A9
:100D400090E06FEF7FEF0E948A06089581E090E0C7
:100D50006FEF7FEF0E948A060895CF93DF93893368
:100D6000A9F18A3219F4C9E0D0E008C0833219F43D
:100D7000CAE0D0E003C0C82FD0E0E09786EF92E051
:100D80006CE271E00E94750D86EF92E0BE014AE0D0
:100D900050E00E94560D8091DE019091DF01C8174E
:100DA000D90751F48091E0019091E101019690936F
:100DB000E1018093E00108C0D093DF01C093DE0120
:100DC0001092E1011092E00110929001DF91CF9119
:100DD0000895EF92FF920F931F93DF93CF93CDB7B8
:100DE000DEB727970FB6F894DEBF0FBECDBF7E01EA
:100DF0000894E11CF11CC70164E371E00E94C70B79
:100E000081E092E00E9445058823F1F10CE112E0B7
:100E1000F8018481882391F18381813039F0813018
:100E2000B8F0823069F08330C1F40EC0C70165E3C9
:100E300071E00E94E10BF80180810E94AD060DC0B7
:100E4000C7016FE371E007C0C70166E471E003C04A
:100E5000C70161E571E00E94E10B86EF92E068E571
:100E600071E00E94750D86EF92E0F80160810E94AA
:100E70005B0C86EF92E0B7010E94BE0D0B5F1F4F27
:100E8000F2E00E341F0721F6CE0101960E942B0CD2
:100E900027960FB6F894DEBF0FBECDBFCF91DF917E
:100EA0001F910F91FF90EF9008959C01AB0182EE8E
:100EB00091E0B9010E94FE12089582EE91E00E9435
:100EC000D712882351F082EE91E00E94D712882336
:100ED00021F082EE91E00E94E41280919001813035
:100EE00049F48091E0019091E10101969093E10134
:100EF0008093E00108950F931F93DF93CF93CDB7B5
:100F0000DEB7C455D0400FB6F894DEBF0FBECDBFDC
:100F100081E08093900186EF92E06DE571E00E94A0
:100F2000750D6091DE017091DF0186EF92E04AE07D
:100F300050E00E94430D86EF92E067E671E00E9468
:100F4000750D6091E0017091E10186EF92E04AE059
:100F500050E00E94560D6091DE017091DF018E011C
:100F60000F5F1F4FC8014AE00E94FA0BC8016EE6EE
:100F700071E00E94840B6091E0017091E101C80171
:100F80000E94530B80919101882321F0C80160E7F2
:100F900071E003C0C80165E771E00E94840B8E0117
:100FA0000D5D1F4FCE010196B80142E350E020E0F5
:100FB00030E00E94C30ACE01089668E173E0A80100
:100FC00021E00E9432118A859B859093E5018093F0
:100FD000E4018C859D85AE85BF858093E601909365
:100FE000E701A093E801B093E90188899989AA896A
:100FF000BB898093EA019093EB01A093EC01B0933D
:10100000ED01AEEEB1E0FE0174968DE001900D921F
:101010008150E1F789A19AA19093FC018093FB0193
:10102000CE0108960E94951282EE91E00E94D7129E
:101030008823C1F48091DC019091DD0101969093A9
:10104000DD018093DC01109290012091910131E04B
:1010500023272093910102974CF01092E101109206
:10106000E00104C01092DD011092DC01CE01019676
:101070000E942B0CCC5ADF4F0FB6F894DEBF0FBE88
:10108000CDBFCF91DF911F910F910895AF92BF9285
:10109000CF92DF92EF92FF920F931F93DF93CF9344
:1010A000CDB7DEB7A0970FB6F894DEBF0FBECDBFA9
:1010B0000E947B070E94E906809190018823E1F15C
:1010C0000E9445067E010894E11CF11CC70160E204
:1010D00070E00E9455076C01429887015701A80EE5
:1010E000B91E12C0319B09C00AC0429A0E94E9068B
:1010F00080919001882319F41FC0319BF6CFF8012D
:1011000081918F010E94BA080A151B0558F30DB48E
:1011100007FEFDCF429AF0E2CF16D104BCF680E084
:1011200060E048E00E9407060E94E60586EF92E034
:101130006AE771E00E94780D0E945D0780E090E010
:10114000A0960FB6F894DEBF0FBECDBFCF91DF9152
:101150001F910F91FF90EF90DF90CF90BF90AF90D5
:1011600008952498239A259A229A81E58CBD1DBC66
:101170002A9A08958EBD0DB407FEFDCF08953998C3
:101180003A9A3B9A389A429A439A0895EF920F936B
:1011900081E092E062E971E04EE951E022EA31E05B
:1011A00004E0E3E0EE2E0E947F050F91EF9008959A
:1011B000FC011082138214820895FC0110821382B4
:1011C000148208951F920F920FB60F9211242F933D
:1011D0003F938F939F93AF93BF93809169029091B8
:1011E0006A02A0916B02B0916C0230916D0201967F
:1011F000A11DB11D232F2D5F2D3720F02D570196F6
:10120000A11DB11D20936D028093690290936A0223
:10121000A0936B02B0936C0280916502909166027C
:10122000A0916702B09168020196A11DB11D809343
:10123000650290936602A0936702B0936802BF9123
:10124000AF919F918F913F912F910F900FBE0F9073
:101250001F9018958FB7F8942091690230916A0217
:1012600040916B0250916C028FBFB901CA01089581
:101270009B01AC017FB7F894809165029091660262
:10128000A0916702B091680266B5A89B05C06F3F48
:1012900019F00196A11DB11D7FBFBA2FA92F982F5C
:1012A0008827860F911DA11DB11D62E0880F991F2F
:1012B000AA1FBB1F6A95D1F7BC012DC0FFB7F894D8
:1012C0008091650290916602A0916702B0916802D8
:1012D000E6B5A89B05C0EF3F19F00196A11DB11D11
:1012E000FFBFBA2FA92F982F88278E0F911DA11D00
:1012F000B11DE2E0880F991FAA1FBB1FEA95D1F725
:10130000861B970B885E9340C8F2215030404040C6
:10131000504068517C4F211531054105510571F64A
:101320000895789484B5826084BD84B5816084BD5D
:1013300085B5826085BD85B5816085BDEEE6F0E04E
:10134000808181608083E1E8F0E0108280818260AA
:101350008083808181608083E0E8F0E0808181602B
:101360008083E1EBF0E0808184608083E0EBF0E05B
:10137000808181608083EAE7F0E0808184608083FF
:1013800080818260808380818160808380818068A9
:1013900080831092C1000895CF93DF93482F50E0CF
:1013A000CA0186569F4FFC0134914A575F4FFA019C
:1013B0008491882369F190E0880F991FFC01E85916
:1013C000FF4FA591B491FC01EE58FF4FC591D49108
:1013D000662351F42FB7F8948C91932F909589231D
:1013E0008C93888189230BC0623061F42FB7F89405
:1013F0008C91932F909589238C938881832B88835C
:101400002FBF06C09FB7F8948C91832B8C939FBFFE
:10141000DF91CF910895482F50E0CA0182559F4F28
:10142000FC012491CA0186569F4FFC0194914A57B2
:101430005F4FFA013491332309F440C0222351F164
:10144000233071F0243028F42130A1F0223011F53E
:1014500014C02630B1F02730C1F02430D9F404C0D4
:10146000809180008F7703C0809180008F7D809372
:10147000800010C084B58F7702C084B58F7D84BD95
:1014800009C08091B0008F7703C08091B0008F7D3C
:101490008093B000E32FF0E0EE0FFF1FEE58FF4FF8
:1014A000A591B4912FB7F894662321F48C9190956F
:1014B000892302C08C91892B8C932FBF0895682FAC
:1014C00070E0CB0182559F4FFC012491CB018656E1
:1014D0009F4FFC0144916A577F4FFB0194919923E0
:1014E00019F420E030E03CC0222351F1233071F0A8
:1014F000243028F42130A1F0223011F514C0263018
:10150000B1F02730C1F02430D9F404C080918000BC
:101510008F7703C0809180008F7D8093800010C002
:1015200084B58F7702C084B58F7D84BD09C080915A
:10153000B0008F7703C08091B0008F7D8093B000A2
:10154000892F90E0880F991F84589F4FFC01A59127
:10155000B4918C9120E030E0842311F021E030E060
:10156000C9010895FC01848195816817790748F4C1
:101570000190F081E02D309721F0E60FF71F808178
:10158000089580E008950F931F93CF93DF93FC019C
:101590008B0141155105F9F061157105E1F0848168
:1015A00095812817390718F0FB01108214C04150AB
:1015B0005040EC01C21BD30B4C175D0708F4EA0145
:1015C00060817181620F731FC801AE010E94970292
:1015D000C00FD11F1882DF91CF911F910F910895F5
:1015E0000F931F93CF93DF93EC018B016F5F7F4FBE
:1015F000888199810E949A01009711F480E005C0CA
:10160000998388831B830A8381E0DF91CF911F91A7
:101610000F910895CF93DF93EC0188819981892BF5
:1016200029F08A819B818617970760F4CE010E947A
:10163000F00A882341F08C819D81892B19F4E8817F
:10164000F981108281E0DF91CF910895EF92FF92AE
:101650000F931F93CF93DF93EC017B016C817D810E
:10166000E114F104C1F04115510599F08A01060F0A
:10167000171FB8010E940A0B882369F0888199819D
:101680002C813D81820F931FB7010E9490021D8320
:101690000C8381E001C080E0DF91CF911F910F9119
:1016A000FF90EF900895EF92FF920F931F93DF93B7
:1016B000CF93CDB7DEB727970FB6F894DEBF0FBE36
:1016C000CDBF7C01CB018E010F5F1F4FB8014AE0F7
:1016D00050E00E94A602F80101900020E9F731973E
:1016E000E01BF10BC701B801AF010E94260B279642
:1016F0000FB6F894DEBF0FBECDBFCF91DF911F9123
:101700000F91FF90EF9008956115710511F480E03D
:101710000895DB010D900020E9F71197A61BB70B88
:10172000AD010E94260B0895CF93DF93EC018881D1
:101730009981009711F00E944201198218821D823E
:101740001C821B821A82DF91CF910895EF92FF9243
:101750000F931F93CF93DF93EC017B018A01BA01B2
:101760000E940A0B882321F4CE010E94940B07C02B
:101770001D830C8388819981B7010E949002CE015C
:10178000DF91CF911F910F91FF90EF900895CF932C
:10179000DF93EC01198218821B821A821D821C823F
:1017A0001E826115710551F0DB010D900020E9F7F3
:1017B0001197A61BB70BAD010E94A60BDF91CF912D
:1017C00008950F931F93182F092F6115710559F074
:1017D000DB010D900020E9F71197A61BB70BAD01B7
:1017E0000E94A60B02C00E94940B812F902F1F9184
:1017F0000F910895EF92FF920F931F93DF93CF9372
:10180000CDB7DEB762970FB6F894DEBF0FBECDBF7F
:101810008C01CB01F8011182108213821282158291
:10182000148216827E010894E11CF11CB70150E07D
:101830000E94A602C801B7010E94E10B62960FB692
:10184000F894DEBF0FBECDBFCF91DF911F910F91F6
:10185000FF90EF900895FC01808191810E944201E8
:101860000895CF92DF92EF92FF920F931F93CF9341
:10187000DF937C016B018A01C0E0D0E00FC0D6018C
:101880006D916D01D701ED91FC910190F081E02DFA
:10189000C7010995C80FD91F015010400115110546
:1018A00071F7CE01DF91CF911F910F91FF90EF90D3
:1018B000DF90CF900895DC01ED91FC910190F081D3
:1018C000E02D09950895EF92FF920F931F938C01DD
:1018D000DC01ED91FC910190F081E02D6DE0099526
:1018E0007C01D801ED91FC910190F081E02DC801BF
:1018F0006AE009959C012E0D3F1DC9011F910F91B2
:10190000FF90EF900895CF93DF93EC01611571057F
:1019100019F420E030E00FC0DB010D900020E9F762
:101920001197A61BB70BE881F9810280F381E02DA6
:10193000AD0109959C01C901DF91CF9108954F92A6
:101940005F927F928F929F92AF92BF92CF92DF92DF
:10195000EF92FF920F931F93DF93CF93CDB7DEB734
:10196000A1970FB6F894DEBF0FBECDBF2C01742E29
:10197000CB01223008F42AE019A231E2C32ED12C87
:10198000CC0EDD1E822E9924AA24BB24672D752F30
:10199000A50194010E944D2379018A01C801B70174
:1019A000A50194010E942E23472D461B0894C108CF
:1019B000D1084A3010F4405D01C0495CF601408313
:1019C000E114F1040105110521F07E2C5F2DC80101
:1019D000DDCFC201B6010E94830CA1960FB6F89428
:1019E000DEBF0FBECDBFCF91DF911F910F91FF9052
:1019F000EF90DF90CF90BF90AF909F908F907F90AF
:101A00005F904F900895CF92DF92EF92FF920F93E5
:101A10001F93CF93DF93EC016A017B012115310500
:101A200041F4E881F9810190F081E02D642F09955E
:101A30001FC02A303105D1F477FF17C0E881F98142
:101A40000190F081E02D6DE209958C014427552726
:101A5000BA014C195D096E097F09CE012AE00E9486
:101A60009F0C9801280F391F04C02AE00E949F0C88
:101A70009C01C901DF91CF911F910F91FF90EF90D1
:101A8000DF90CF900895EF92FF920F931F937B0109
:101A90009A010027F7FC0095102FB801A7010E94BA
:101AA000030D1F910F91FF90EF900895CF92DF9259
:101AB000EF92FF920F931F936C017B019A01002715
:101AC000F7FC0095102FB801A7010E94030D8C01AF
:101AD000C6010E94630C080F191FC8011F910F91C6
:101AE000FF90EF90DF90CF9008950E94830C0895AF
:101AF000EF92FF920F931F937C010E94830C8C0145
:101B0000C7010E94630C080F191FC8011F910F9194
:101B1000FF90EF900895AF92BF92CF92DF92EF9235
:101B2000FF920F931F93CF93DF935C016B01EE2421
:101B3000FF24C0E0D0E010C0D501ED91FC91008100
:101B40001181C601BE010E94B20A682FC501F801C9
:101B50000995E80EF91E2196F60184819581C81732
:101B6000D90750F3C701DF91CF911F910F91FF90DB
:101B7000EF90DF90CF90BF90AF900895EF92FF92DB
:101B80000F931F937C010E948B0D8C01C7010E9453
:101B9000630C9C01200F311FC9011F910F91FF9011
:101BA000EF900895CF93DF930E9491090E94DA028B
:101BB000CDE1DEE00E94D7022097E1F30E941D0EE6
:101BC000F9CF08951F920F920FB60F9211242F9301
:101BD0003F934F938F939F93EF93FF938091C00018
:101BE00082FD1DC04091C6002091AE023091AF022F
:101BF0002F5F3F4F2F7330708091B0029091B102F0
:101C00002817390771F0E091AE02F091AF02E25966
:101C1000FD4F40833093AF022093AE0202C080910B
:101C2000C600FF91EF919F918F914F913F912F911E
:101C30000F900FBE0F901F901895E0910203F09146
:101C40000303E05CFF4F8191919120813181821BE0
:101C5000930B8F739070892B11F00E94E10D089502
:101C60001F920F920FB60F9211242F933F938F93D1
:101C70009F93EF93FF932091F2023091F3028091B2
:101C8000F4029091F5022817390731F48091C100D0
:101C90008F7D8093C10014C0E091F402F091F502B1
:101CA000EE54FD4F20818091F4029091F50201964F
:101CB0008F7390709093F5028093F4022093C60086
:101CC000FF91EF919F918F913F912F910F900FBEB8
:101CD0000F901F901895AF92BF92DF92EF92FF92F4
:101CE0000F931F93CF93DF93EC017A018B01DD24D7
:101CF000403081EE580780E0680780E0780711F0F7
:101D0000DD24D39491E0A92EB12CEC89FD89DD204E
:101D100069F0C50108A002C0880F991F0A94E2F774
:101D2000808360E079E08DE390E005C0108260E898
:101D300074E88EE190E0A80197010E944D232150A4
:101D4000304040405040569547953795279580E163
:101D50002030380720F0DD2011F0DD24D6CFE889CF
:101D6000F9893083EA89FB89208319A2EE89FF89EA
:101D7000408121E030E0C9010C8C02C0880F991F1E
:101D80000A94E2F7482B4083EE89FF894081C9011C
:101D90000D8C02C0880F991F0A94E2F7482B4083EC
:101DA000EE89FF894081C9010E8C02C0880F991FFE
:101DB0000A94E2F7482B4083EE89FF8980810F8CDB
:101DC00002C0220F331F0A94E2F7209528232083B4
:101DD000DF91CF911F910F91FF90EF90DF90BF9017
:101DE000AF900895DC011C96ED91FC911D97E05C8D
:101DF000FF4F2191319180819181281B390B2F73E5
:101E00003070C9010895DC011C96ED91FC911D977D
:101E1000E05CFF4F20813181E054F040DF01AE5B98
:101E2000BF4F8D919C9111972817390719F42FEF07
:101E30003FEF07C08D919C91E80FF91F8081282FFB
:101E400030E0C9010895DC011C96ED91FC911D97CD
:101E5000E05CFF4F20813181E054F040DF01AE5B58
:101E6000BF4F8D919C9111972817390719F42FEFC7
:101E70003FEF10C08D919C911197E80FF91F2081C1
:101E80008D919C91119701968F73907011969C93F0
:101E90008E9330E0C9010895DC0191968C91919761
:101EA000882339F05496ED91FC915597808186FFF7
:101EB000F9CF91961C920895CF93DF93EC01EE85B4
:101EC000FF85E05CFF4F20813181E054F0402F5FBF
:101ED0003F4F2F733070DF01AE5BBF4F8D919C91F0
:101EE000119728173907D1F3E05CFF4F808191816A
:101EF000E054F040E80FF91F6083EE85FF85E05C59
:101F0000FF4F31832083EE89FF89208181E090E0BB
:101F10000F8C02C0880F991F0A94E2F7282B2083A8
:101F200081E089A3EC89FD8980818064808381E0E0
:101F300090E0DF91CF9108951092F9021092F8028B
:101F400088EE93E0A0E0B0E08093FA029093FB0269
:101F5000A093FC02B093FD0287EB91E09093F7020F
:101F60008093F6028EE692E090930303809302033F
:101F700082EB92E0909305038093040385EC90E05C
:101F8000909307038093060384EC90E090930903F9
:101F90008093080380EC90E090930B0380930A03F6
:101FA00081EC90E090930D0380930C0382EC90E021
:101FB00090930F0380930E0386EC90E090931103AF
:101FC0008093100384E08093120383E080931303D3
:101FD00087E08093140385E08093150381E080936C
:101FE0001603089510921D0310921E0310922103F0
:101FF0001092230382E090E0A0E0B0E080932403FD
:1020000090932503A0932603B093270310923B03DC
:10201000109245031092440387ED91E0909343039F
:10202000809342031092470308952F923F924F925C
:102030005F926F927F928F929F92AF92BF92CF9258
:10204000DF92EF92FF920F931F93DF93CF93CDB761
:10205000DEB7C754D0400FB6F894DEBF0FBECDBF79
:10206000582E492EFB013A01190184A595A5998B9B
:10207000888B27ED31E03F872E8786A58A8B87A541
:102080008B8B80A991A9A2A9B3A98C8B9D8BAE8BB8
:10209000BF8B84A995A9A6A9B7A9888F998FAA8F64
:1020A000BB8F80AD91ADA2ADB3AD8C8F9D8FAE8F48
:1020B000BF8F84AD88A3FD9681919191A191B1913B
:1020C00089A39AA3ABA3BCA381919191A191B19152
:1020D0008DA39EA3AFA3B8A7808191819AA789A75A
:1020E0001EA61DA63CA72BA718AA7A018E01025F87
:1020F0001F4F3BE2A32EB12CAC0EBD1E4E01089427
:10210000811C911C35C0D7018C918F3221F4089429
:10211000E11CF11C2DC0422F4E194D3008F04CE04F
:10212000C42EDD24C401B701A6010E949702F40168
:10213000EC0DFD1D1082C5010E940C15C501B801F2
:10214000A40121E00E94551A882351F4E52DF42DB5
:102150001382128287ED91E091838083158266C09D
:10216000EC0CFD1CC8010E940C15C50158018C0126
:10217000C7016FE270E00E9485029C01009719F68A
:10218000E618F708F101F182E082E52DF42DD8017F
:1021900012968D919C9113979383828387ED91E0A2
:1021A0009183808314968C911497848315968C91D7
:1021B0001597858316962D913D914D915C911997B8
:1021C00026833783408751871A962D913D914D91F3
:1021D0005C911D9722873387448755871E962D91E2
:1021E0003D914D915C91519726873787408B518B5C
:1021F00052968C915297828B53962D913D914D9191
:102200005C915697238B348B458B568B57962D912B
:102210003D914D915C915A97278B308F418F528F12
:102220005B968D919C915C97948F838F852D942DD7
:10223000C95BDF4F0FB6F894DEBF0FBECDBFCF91A5
:10224000DF911F910F91FF90EF90DF90CF90BF90A3
:10225000AF909F908F907F906F905F904F903F9046
:102260002F9008959F92AF92BF92CF92DF92EF92FC
:10227000FF920F931F93DF93CF93CDB7DEB7C6576F
:10228000D0400FB6F894DEBF0FBECDBFC82E992E3A
:102290008A01D22E43E0A42EB12CAC0EBD1EC50186
:1022A000A8019E012F5F3F4F0E941510E980FA8020
:1022B000E00EF11EF701808147ED51E0288588236B
:1022C00009F03FC08D819E819BA38AA359A348A397
:1022D0008F818CA32DA389859A85AB85BC858EA320
:1022E0009FA3A8A7B9A78D859E85AF85B8898AA722
:1022F0009BA7ACA7BDA789899A89AB89BC898EA702
:102300009FA7A8ABB9AB8D898AAB8E899F89A88D11
:10231000B98D8BAB9CABADABBEAB8A8D9B8DAC8DC1
:10232000BD8D8FAB98AFA9AFBAAF8E8D9F8D9CAF8F
:102330008BAF8C2D992DBE01605E7F4F48E851E038
:102340009FC0FE01FF96118210825EAF4DAFFE016D
:10235000EE5BFF4F10822223A9F02250CE01CD96D2
:10236000223048F462E473E0A7012D2D0E94551A33
:10237000882381F407C0B501A7012D2D0E94551AAD
:10238000882329F48C2D992D0E9482127BC0C501CF
:102390000E940C15F6E0DF2259F0FE01E05BFF4FD2
:1023A0004081518162817381CE01CD960E94FC13E0
:1023B0009E01265A3F4FFE01FF9680819181F901CF
:1023C0009383828387ED91E091838083FE01EF5BAD
:1023D000FF4F8081F9018483FE01EE5BFF4F808116
:1023E000F9018583FE01ED5BFF4F80819181A28120
:1023F000B381F90186839783A087B187FE01E95BEA
:10240000FF4F80819181A281B381F90182879387F7
:10241000A487B587FE01E55BFF4F80819181A28192
:10242000B381F90186879787A08BB18BFE01E15BB1
:10243000FF4F8081F901828BFE01E05BFF4F8081BD
:102440009181A281B381F901838B948BA58BB68B8B
:10245000FE01EC5AFF4F80819181A281B381F90185
:10246000878B908FA18FB28FFE01E85AFF4F80813A
:102470009181F901948F838F8C2D992DB901A7013A
:102480000E9482138C2D992DCA58DF4F0FB6F894F5
:10249000DEBF0FBECDBFCF91DF911F910F91FF9097
:1024A000EF90DF90CF90BF90AF909F9008950F93E3
:1024B0001F93CF93DF93EC01462F61E00E94961D9E
:1024C0008823D1F08E01045F1F4FC801BE0141E097
:1024D0000E94031F882339F4C801BE0140E00E9416
:1024E000031F882349F0CE018A96B8010E94421743
:1024F000882319F081E001C080E0DF91CF911F9126
:102500000F910895FC011382128288EE93E0A0E0FF
:10251000B0E084839583A683B78387EC91E09183B1
:102520008083128E118E14860895FC0187EC91E051
:10253000918380830895DF93CF930F92CDB7DEB759
:10254000FC016983A081B18112962D913C91139772
:10255000BE016F5F7F4F41E050E0F90109950F9098
:10256000CF91DF910895DC015996ED91FC915A9736
:10257000309719F420E030E018C023893489458968
:10258000568982859385A485B585281B390B4A0B0E
:102590005B0B2030B0E83B07B0E04B07B0E05B07D7
:1025A00020F02FEF3FE740E050E0C9010895DC0143
:1025B0005996ED91FC915A97309711F480E0089567
:1025C0008581811181E00895CF93DF93EC01898D9E
:1025D0009A8D009741F00E940C15898D9A8D0E946A
:1025E00042011A8E198EDF91CF910895FC01818DE1
:1025F000928D009711F00E94C2140895FC01818D04
:10260000928D009719F420E030E003C00E94E3159A
:102610009C01C9010895DF93CF930F92CDB7DEB728
:10262000FC01818D928D009749F0BE016F5F7F4F55
:1026300041E050E00E94E315019719F02FEF3FEFC2
:1026400003C08981282F30E0C9010F90CF91DF911D
:102650000895EF92FF920F931F93DF93CF930F9202
:10266000CDB7DEB77C01DC0159968D919C915A97CC
:10267000009719F400E010E01FC0BE016F5F7F4FAC
:1026800041E050E00E94E315019719F00FEF1FEFB2
:1026900013C08981082F10E0D7015996ED91FC9164
:1026A0005A974285538564857585415050406040F6
:1026B0007040CF010E94FC13C8010F90CF91DF91B1
:1026C0001F910F91FF90EF900895CF93DF93EC014E
:1026D000E98DFA8D309761F013821282CF010E944A
:1026E00028189C01E98DFA8D82819381892B31F024
:1026F00081E090E09B838A8320E030E0C901DF9194
:10270000CF910895EF92FF920F931F93CF93DF9392
:10271000EC01F62EE72E8A011B821A8288EE93E0E6
:10272000A0E0B0E08C839D83AE83BF8387EC91E013
:10273000998388838DE190E00E9498009A8F898F19
:10274000009791F0DC018F2D9E2D9C01F9018DE108
:1027500001900D928150E1F7CE010C96B8014CE04A
:1027600050E00E949702188EDF91CF911F910F9138
:10277000FF90EF900895CF93DF93EC01DB0180E0B1
:1027800090E020E2FD01E80FF91F208301968B30D5
:102790009105C1F757E040E021C02E3219F082ECDC
:1027A00090E007C05A3019F15AE048E017C03217DC
:1027B000F1F0FC01019634913323C9F75417B8F0B6
:1027C0002132A8F02F3798F4822F81568A3108F4ED
:1027D0002052FD01E40FF11D20834F5F2991222338
:1027E000E1F690E08C91803219F091E001C090E028
:1027F000892FDF91CF9108956F927F928F929F9250
:10280000AF92BF92CF92DF92EF92FF920F931F93FE
:10281000CF93DF93EC017A018B012D81222309F400
:1028200080C08B899C89AD89BE8984179507A607CE
:10283000B70708F476C085C0E114F104010511055D
:1028400049F41E821F82188619861A861B861C86EA
:102850001D8665C02A853B854C855D85EB8DFC8D8D
:10286000858590E009962150304040405040390124
:102870004A01082E04C096948794779467940A942A
:10288000D2F72F5F3F4F4F4F5F4F0894E108F10899
:10289000010911095701680104C0D694C794B7947F
:1028A000A7948A95D2F70894E11CF11C011D111D13
:1028B000A614B704C804D90428F021153105410530
:1028C000510549F48F89988DA98DBA8D8E839F8388
:1028D000A887B98716C0A618B708C808D90811C0B4
:1028E0004E815F81688579858B8D9C8D94010E94D6
:1028F000E4200894A108B108C108D108882331F464
:1029000010C086E0882E912C8C0E9D1EA114B1045F
:10291000C104D10429F7EA86FB860C871D8781E074
:1029200001C080E0DF91CF911F910F91FF90EF9058
:10293000DF90CF90BF90AF909F908F907F906F90DF
:102940000895223009F078CFE6CFCF93DF93EC01E2
:10295000462F6E857F85888999890E94C81E8823A5
:1029600019F420E030E00AC08A89282F30E095E091
:10297000220F331F9A95E1F72D593C4FC901DF9182
:10298000CF9108950F931F93CF93DF938C01FC0198
:1029900085818823D9F1848187FF35C0C80161E032
:1029A0000E94A514EC01009789F1F801858182301D
:1029B00040F483899489A589B6898C8F9D8FAE8FC9
:1029C000BF8FF8018789908D9B8F8A8F8789908D23
:1029D000A18DB28DCD01AA27BB279D8B8C8BE09159
:1029E0006103F0916203309751F0BE016A5E7F4F40
:1029F000CE0148960995888D998D9B8B8A8BF8011D
:102A000084818F7784830E94691E01C080E0DF91FA
:102A1000CF911F910F910895CF93DF93EC010E9406
:102A2000C214882311F01D8281E0DF91CF910895B7
:102A30006F927F928F929F92AF92BF92CF92DF92CE
:102A4000EF92FF920F931F93DF93CF9300D000D0AC
:102A5000CDB7DEB77C015A016B01DC0115968C9174
:102A60001597813009F08FC014968C9181FF8BC02F
:102A70009EC00097A105B10511F481E085C0F70162
:102A80006284738484849584C701B601A5010E9481
:102A9000FC13882309F477C0D7015B968D919C9134
:102AA0005C97A114B104C104D10489F457964D91E7
:102AB0005D916D917C915A970E945721882309F46A
:102AC00062C0F701178A108E118E128E3DC0D70199
:102AD00016964D915D916D917C9119979E012F5F96
:102AE0003F4F0E94E420882309F44DC0D7015B9634
:102AF000ED91FC915C9749815A816B817C8187893A
:102B0000803129F088EF9FEFAFEFBFE004C088EF7E
:102B10009FEFA0E0B0E0481759076A077B07A0F4D1
:102B2000CF010E945721882371F1F7014681578117
:102B300060857185838D948D0FEF1FEF2FEF3FE040
:102B40000E9448208823F9F0D7015396AD92BD9298
:102B5000CD92DC92569714968C91149780681496B7
:102B60008C93C7010E94C214882369F0B601A501A5
:102B70006A147B048C049D0410F4B401A301C70102
:102B80000E94FC1301C080E00F900F900F900F90F7
:102B9000CF91DF911F910F91FF90EF90DF90CF9039
:102BA000BF90AF909F908F907F906F900895F701A6
:102BB00083899489A589B68984179507A607B707DD
:102BC00008F057CFE0CF2F923F924F925F926F92D3
:102BD0007F928F929F92AF92BF92CF92DF92EF92AD
:102BE000FF920F931F93CF93DF93EC012A018D8106
:102BF000882309F4C6C08C8180FFC3C0D8C02501DA
:102C00004E185F084B0176E0272E312C2C0E3D1E0E
:102C10003201B1C02A853B854C855D856FEFA62EBC
:102C200061E0B62EA222B3228D8179018A0199E05A
:102C300016950795F794E7949A95D1F7EB8DFC8D4F
:102C4000823049F4428D538D648D758D4E0D5F1D1C
:102C5000601F711F3FC0D480DA94DE20A114B1043C
:102C6000D9F4DD20C9F4211531054105510549F498
:102C70008F89988DA98DBA8D8E839F83A887B987F8
:102C80000BC04E815F8168857985CF0191010E94DB
:102C9000E420882309F475C0EB8DFC8D4E815F81A3
:102CA000688579854250504060407040058404C07A
:102CB000440F551F661F771F0A94D2F786859785A4
:102CC000A089B189480F591F6A1F7B1F4D0D511DE7
:102CD000611D711D80E092E08A199B0963018615D0
:102CE000970508F46C018C8186FD06C080E0C8164B
:102CF00082E0D80609F073C08091A5019091A601E9
:102D0000A091A701B091A801481759076A077B074E
:102D100009F465C080916305909164059501860171
:102D200074010E94E91C882361F18C0C9D1C12C067
:102D300095012D593C4FA9014C0D5D1DD401F901A0
:102D400002C081918D93E417F507D9F7E21BF30BCD
:102D50008E0E9F1E960140E050E08A859B85AC85D3
:102D6000BD85820F931FA41FB51F8A879B87AC87E1
:102D7000BD876C187D086114710409F04BCFA20166
:102D800002C04FEF5FEFCA01DF91CF911F910F910A
:102D9000FF90EF90DF90CF90BF90AF909F908F907B
:102DA0007F906F905F904F903F902F900895AB88E9
:102DB000BC88CD88DE88EA84FB840C851D859A0159
:102DC00040E050E0D601C5018E199F09A00BB10B60
:102DD00082179307A407B50708F411CF13CFCB01CF
:102DE000BA0140E00E94C81E882309F0A1CFC9CFD4
:102DF000CF92DF92EF92FF920F931F93DF93CF93C7
:102E00000F92CDB7DEB76C01FC018581823070F086
:102E1000E284F38404851585C601BE016F5F7F4F90
:102E200041E050E00E94E315019769F020E030E0B6
:102E3000C9010F90CF91DF911F910F91FF90EF90FB
:102E4000DF90CF900895F60182859385A485B5859E
:102E50004F96A11DB11D82879387A487B587F5E0A2
:102E600016950795F794E794FA95D1F78E2D8F7004
:102E7000282F30E0E5E0220F331FEA95E1F72D59C6
:102E80003C4FD6CF0F931F93CF93DF93EC018B0171
:102E90008D81882309F041C0FB0187898031B1F41D
:102EA00082E08D831F8A188E198E1A8E808D918DE7
:102EB000A0E0B0E045E0880F991FAA1FBB1F4A950C
:102EC000D1F78B8B9C8BAD8BBE8B15C0803229F5D7
:102ED00083E08D83FB01428D538D648D758D4F8B07
:102EE000588F698F7A8F9E012D5E3F4FC8010E94D7
:102EF000B021882391F01C8F0B8F81E08C831E8280
:102F00001F82188619861A861B861C861D861E86B9
:102F10001F86188A198A1A8A01C080E0DF91CF9132
:102F20001F910F9108951F93CF93DF93EC01142FFE
:102F3000E62FF0E075E0EE0FFF1F7A95E1F7ED590F
:102F4000FC4F8385817121F0842F827409F054C075
:102F50006A8B8091A5019091A601A091A701B091E3
:102F6000A8018E879F87A88BB98B84899589A0E05B
:102F7000B0E0BC0155274427828D938DA0E0B0E0DE
:102F8000482B592B6A2B7B2B4F8B588F698F7A8F4D
:102F9000838590E088719070009751F4848D958DB1
:102FA000A68DB78D8B8B9C8BAD8BBE8B81E00CC0BF
:102FB000409711F59E012D5E3F4F8B8D9C8D0E9499
:102FC000B0218823C9F084E08D83812F8F708C839A
:102FD0001E821F82188619861A861B861C861D86ED
:102FE00016FD02C081E009C0CE0140E050E060E083
:102FF00070E00E94181501C080E0DF91CF911F9111
:103000000895CF93DF93EC019C012A5F3F4F8B8D96
:103010009C8D41E050E060E070E00E941F22882318
:10302000A1F08F89988DA98DBA8D0097A105B10562
:1030300059F48E819F81A885B9858F8B988FA98F30
:10304000BA8F8C8180688C8381E0DF91CF91089565
:103050002F923F924F925F927F928F929F92AF9268
:10306000BF92CF92DF92EF92FF920F931F93DF9365
:10307000CF9300D000D000D0CDB7DEB76C01162FB3
:10308000072F5E834D83DC0115968C911597813057
:1030900009F070C114968C9181FF6CC18EC1F6014C
:1030A000438954896589768982859385A485B58508
:1030B00084179507A607B70731F0C6010E94FC13D5
:1030C000882309F457C1812F902F9C0129012D805D
:1030D0003E8017C1D6015B96ED91FC915C97DA01B9
:1030E000C90119E0B695A795979587951A95D1F7D7
:1030F00074807A9478227FEF872E71E0972E822257
:103100009322772009F04EC08114910409F04AC03F
:10311000D60116964D915D916D917C91199741154F
:1031200051056105710581F457968D919D910D9022
:10313000BC91A02D0097A105B10549F1F601868348
:103140009783A087B1872EC0CF019E012F5F3F4F8D
:103150000E94E420882309F414C129813A814B811B
:103160005C81D6015B96ED91FC915C9787898031FB
:1031700029F088EF9FEFAFEFBFE004C088EF9FEF2B
:10318000A0E0B0E0281739074A075B0730F0C60116
:103190000E940118882331F4EDC0F601268337839D
:1031A0004087518780E092E0881999095101821582
:1031B000930508F45C01D6015B96ED91FC915C9758
:1031C0001696ED90FD900D911C9119978EEF9FEF43
:1031D000AFEFBFEFE80EF91E0A1F1B1F058404C0E6
:1031E000EE0CFF1C001F111F0A94D2F786859785ED
:1031F000A089B189E80EF91E0A1F1B1FE70CF11CFC
:10320000011D111D90E0A91692E0B90651F58091BB
:10321000A5019091A601A091A701B091A8018E15DA
:103220009F05A007B10761F48FEF9FEFAFEFBFEFEE
:103230008093A5019093A601A093A701B093A80144
:103240008091630590916405B801A70192010E94E5
:103250008C1C882309F48EC0A0E0B2E04A0E5B1EED
:103260003EC08114910409F5F60122853385448519
:10327000558583899489A589B689281739074A070E
:103280005B0798F00E94691E882309F473C0E092DE
:10329000A501F092A6010093A7011093A8018091C7
:1032A000650581608093650508C0C801B70141E0EC
:1032B0000E94C81E882309F45DC094012D593C4F1B
:1032C000A9014A0D5B1DD201F90102C08D918193C4
:1032D000E417F507D9F7E21BF30B4E0E5F1E2A1811
:1032E0003B08950140E050E0F60182859385A48576
:1032F000B585820F931FA41FB51F82879387A4876C
:10330000B587D6011A962D913D914D915C911D97EF
:103310002114310409F0DECE53968D919D910D90CC
:10332000BC91A02D82179307A407B50748F4F601B6
:10333000238B348B458B568B84818068848311C0AA
:103340008091610390916203892B59F08D819E8158
:10335000892B39F0D60114968C91149780681496B5
:103360008C93F601848183FF0EC0C6010E94C214B3
:10337000882349F481E090E0D60113969C938E93C4
:1033800012971E821D828D819E8126960FB6F8941B
:10339000DEBF0FBECDBFCF91DF911F910F91FF9088
:1033A000EF90DF90CF90BF90AF909F908F907F90E5
:1033B0005F904F903F902F90089582FD70CE83CE06
:1033C000DF93CF930F92CDB7DEB76983BE016F5FF6
:1033D0007F4F41E050E00E9428180F90CF91DF917D
:1033E0000895DF92EF92FF920F931F93CF93DF9395
:1033F000EC010E940118882309F44EC0EB8DFC8D6E
:10340000EE80FF80088519858EEF9FEFAFEFBFEF4D
:10341000E80EF91E0A1F1B1F058404C0EE0CFF1CDA
:10342000001F111F0A94D2F786859785A089B1895C
:10343000E80EF91E0A1F1B1FD4800894E108F1084A
:10344000010911090BC0C801B7016D0D711D811D66
:10345000911D0E94A41E8823F9F0DA94DD2099F7CB
:10346000EB8DFC8D20E032E040E050E0058404C0AC
:10347000220F331F441F551F0A94D2F78B899C8952
:10348000AD89BE89820F931FA41FB51F8B8B9C8BA8
:10349000AD8BBE8B81E001C080E0DF91CF911F91A9
:1034A0000F91FF90EF90DF9008956F927F928F922F
:1034B0009F92AF92BF92CF92DF92EF92FF920F93C3
:1034C0001F93DF93CF93CDB7DEB72B970FB6F8944A
:1034D000DEBF0FBECDBF5C016B01822EDC011596F5
:1034E0008C91882309F0D2C0CA018E010F5F1F4F53
:1034F000B8010E94BB13882309F4C8C0F601838D6C
:10350000948DD5015C969C938E935B97168217825F
:1035100010861186D6011A961D921D921D921C923C
:103520001D979924380141C0C6010E94F816FC017C
:10353000009709F4ABC085E016950795F794E794DA
:103540008A95D1F71E2D1F708081882311F0853E4A
:10355000D1F4992091F4D50152961C935297209161
:10356000A5013091A6014091A7015091A8011E9696
:103570002D933D934D935C9351978081882399F4CB
:103580009924939421C0C301BF014BE050E00E94F5
:103590006F02009751F4882D8073803309F476C050
:1035A000C501612F6FC099249394F601E284F384DE
:1035B0000485158583899489A589B689E816F90655
:1035C0000A071B0708F4B0CF882D8271823109F0F9
:1035D0005DC0992041F0C50161E00E94A5148C01F5
:1035E000009789F453C0D60115968C91823009F466
:1035F0004DC0C6010E94F119882309F447C0F501A6
:10360000128A03E613E080E2D8011D928A95E9F759
:10361000D801FE0131968BE001900D928150E1F7C7
:10362000E0916103F0916203309739F0B801625F75
:103630007F4FC8014096099509C081E298E2F801E0
:10364000918B808B80E098E097878687D801509691
:103650008D919C91519753969C938E935297599626
:103660009C938E9358971E968D919C911F97579679
:103670009C938E9356970E94691E882339F0C5014A
:10368000F5016289482D0E94931701C080E02B96B6
:103690000FB6F894DEBF0FBECDBFCF91DF911F9163
:1036A0000F91FF90EF90DF90CF90BF90AF909F90E1
:1036B0008F907F906F900895FC01673020F086E135
:1036C000858380E00895262F30E060FD02C06630DB
:1036D00019F48DB58E7F02C08DB581608DBD8CB51E
:1036E0008C7F8CBD4CB522FD02C090E001C092E001
:1036F00036952795822F8170842B892B8CBD81E094
:103700000895FF920F931F93CF93DF938B010E9435
:103710002A09EB01FF24FA94FEBC0DB407FEFDCF8D
:103720008EB58F3F11F481E008C00E942A096C1BFE
:103730007D0B6017710780F380E0DF91CF911F91BF
:103740000F91FF900895FC01848160E00E940B0AB4
:103750000895FC01848161E00E940B0A0895DC0158
:103760006EBDFA0120E030E00DB407FEFDCF808190
:103770008EBD0DB407FEFDCF81818EBD2E5F3F4F04
:10378000329682E02030380779F70DB407FEFDCF7E
:103790008FEF8EBD0DB407FEFDCF8FEF8EBD0DB444
:1037A00007FEFDCF8FEF8EBD0DB407FEFDCF8EB5AA
:1037B0001A968C931A978F71853011F481E00895D1
:1037C00081E115968C931597CD010E94A91B80E08D
:1037D0000895FF920F931F93CF93DF93EC010E9404
:1037E0002A098B01FF24FA9409C00E942A09601B50
:1037F000710B6D52714010F08FE00DC0FEBC0DB426
:1038000007FEFDCF8EB58A878F3F79F38E3F11F487
:1038100081E006C08DE08D83CE010E94A91B80E06F
:10382000DF91CF911F910F91FF900895CF93DF9378
:10383000EC018E818823D1F08FEF8EBD2F813885EA
:103840004FEF04C00DB407FEFDCF4EBD2F5F3F4FBD
:10385000C901019781509240A8F338872F830DB496
:1038600007FEFDCFCE010E94A91B1E82DF91CF91E2
:103870000895DF92EF92FF920F931F93CF93DF9300
:10388000EC01D62E79018A010E94161CCE010E94FD
:10389000A31BCE016CE271E00E94811B8D2D806420
:1038A0008EBD0DB407FEFDCF28E130E0D801C70181
:1038B000022E04C0B695A795979587950A94D2F7DE
:1038C0008EBD0DB407FEFDCF285030408FEF283F4E
:1038D000380761F7DD2011F485E906C088E0D816C5
:1038E00011F487E801C08FEF8EBD0DB407FEFDCF48
:1038F00090E02FEF2EBD0DB407FEFDCF8EB587FFF4
:1039000002C09150B9F78A87DF91CF911F910F9133
:10391000FF90EF90DF900895CF92DF92EF92FF92A9
:103920000F931F93CF93DF93EC017A018B01690111
:10393000411551056105710511F482E137C08B8590
:10394000833039F029E0EE0CFF1C001F111F2A956F
:10395000D1F7CE0168E1A80197010E94391C8823A4
:1039600011F084E023C0CE016EEFA6010E94AF1BD0
:103970008823E9F0CE0168E572E00E94811B88236C
:1039800011F485E113C0CE016DE020E030E040E0AD
:1039900050E00E94391C882341F48FEF8EBD0DB496
:1039A00007FEFDCF8EB5882379F084E18D83CE01AB
:1039B0000E94A91B80E0DF91CF911F910F91FF9092
:1039C000EF90DF90CF900895CE010E94A91B81E077
:1039D000F2CF8F929F92AF92BF92CF92DF92EF92EF
:1039E000FF920F931F93CF93DF93EC015A016B016A
:1039F00049010115110509F47BC0C801820F931F0D
:103A00008150924008F06FC08E81882371F08881C8
:103A10009981AA81BB81481759076A077B0729F456
:103A20008F8198858816990618F5A882B982CA826E
:103A3000DB828B85833039F069E0AA0CBB1CCC1C7F
:103A4000DD1C6A95D1F7CE0161E1A60195010E94C6
:103A5000391C882319F083E08D8345C0CE010E9474
:103A6000E91B882309F43FC018861F8281E08E83FA
:103A70008FEF8EBD8F8198852FEF05C00DB407FEA7
:103A8000FDCF2EBD019688159905C0F398878F83C9
:103A9000D801119720E030E09FEF0BC00DB407FE76
:103AA000FDCF8EB5F701E20FF31F80839EBD2F5F20
:103AB0003F4F2A173B0790F30DB407FEFDCF8EB59D
:103AC000AE0DBF1D8C932F813885200F311F388795
:103AD0002F838985882319F02050324048F0CE0189
:103AE0000E94161C05C0CE010E94A91B80E001C0E7
:103AF00081E0DF91CF911F910F91FF90EF90DF90C8
:103B0000CF90BF90AF909F908F900895EF92FF92CB
:103B10000F931F93790120E030E000E012E00E9453
:103B2000E91C1F910F91FF90EF900895BF92CF92E3
:103B3000DF92EF92FF920F931F93CF93DF93EC01ED
:103B4000B62E1B8619861E821D824C830E942A096E
:103B50006B018C8161E00E94CC09CE010E94A91BFF
:103B60008CE060E00E94CC098BE061E00E94CC090F
:103B70008DE061E00E94CC098AE061E00E94CC09FE
:103B80008AE061E00E940B0A83E58CBD8DB58E7FD3
:103B90008DBD80E09FEF9EBD0DB407FEFDCF8F5F12
:103BA0008A30C9F7CE010E94A31B09C00E942A09CE
:103BB0006C197D09615D774010F081E05EC0CE0137
:103BC00060E020E030E040E050E00E94391C182F17
:103BD0008A87813059F7CE0168E02AEA31E040E077
:103BE00050E00E94391C82FF02C01B8711C080E098
:103BF0002FEF2EBD0DB407FEFDCF9EB58F5F843035
:103C0000C1F79A879A3A11F082E037C082E08B8739
:103C10008B85823021F0EE24FF2487010FC0E12C38
:103C2000F12C012DF0E41F2F09C00E942A096C1904
:103C30007D09615D774010F088E01FC0CE0167E329
:103C400020E030E040E050E00E94391CCE0169E203
:103C5000A80197010E94391C8A87882331F78B8538
:103C6000823031F5CE016AE320E030E040E050E000
:103C70000E94391C882339F086E08D83CE010E9492
:103C8000A91B80E01CC08FEF8EBD0DB407FEFDCFD9
:103C90008EB5807C803C11F483E08B8780E09FEFC1
:103CA0009EBD0DB407FEFDCF2EB58F5F8330C1F7EB
:103CB000CE010E94A91BCE016B2D0E945C1BDF91DF
:103CC000CF911F910F91FF90EF90DF90CF90BF9019
:103CD000089580916505882399F14091A50150913F
:103CE000A6016091A7017091A80180916305909150
:103CF000640523E633E00E948C1C882319F140916F
:103D000066055091670560916805709169054115D8
:103D100051056105710591F08091630590916405ED
:103D200023E633E00E948C1C882361F01092660524
:103D3000109267051092680510926905109265054A
:103D400081E0089580E00895EF92FF920F931F9312
:103D50007B018C010E94691E8823A9F0E3E6F3E051
:103D6000119285E0E336F807D9F7E092A501F092C9
:103D7000A6010093A7011093A801809165058160B9
:103D80008093650581E01F910F91FF90EF9008955A
:103D9000DF92EF92FF920F931F937B018C01D42E41
:103DA0008091A5019091A601A091A701B091A801D1
:103DB0008E159F05A007B107C1F00E94691E8823D8
:103DC000D9F08091630590916405B801A70123E6BD
:103DD00033E00E94861D882379F0E092A501F092DD
:103DE000A6010093A7011093A801809165058D2974
:103DF0008093650581E001C080E01F910F91FF90E5
:103E0000EF90DF9008958F929F92AF92BF92CF92E2
:103E1000DF92EF92FF920F931F93CF93DF936C018A
:103E2000142F7093640560936305442321F4882460
:103E30009924540140C0453008F01CC160E070E096
:103E400080E090E040E00E94C81E882309F412C17F
:103E5000C12FD0E02197FE0174E0EE0FFF1F7A958D
:103E6000E1F7ED59FC4FE254FE4F8081EE5BF140EB
:103E700090E08F779070892B09F0FCC0E653FE4FDD
:103E800080819181A281B38184369105A105B1051C
:103E900008F4F0C064E0CC0FDD1F6A95E1F7C75D60
:103EA000DA4F88809980AA80BB8081149104A10494
:103EB000B10409F4DFC0C501B40140E00E94C81E8E
:103EC000882309F4D7C080916E0390916F038050CE
:103ED000924009F0CFC020917303222309F4CAC095
:103EE0008091710390917203892B09F4C3C0809172
:103EF0007003882309F4BEC0F601228B8091700301
:103F00008483158661E070E007C04F5FF601458746
:103F10004150483008F0AEC0F6014585848190E0FC
:103F20009B01042E02C0220F331F0A94E2F782176E
:103F3000930759F72091790330917A0321153105C0
:103F400019F040E050E008C02091870330918803C9
:103F50004091890350918A03F60125833683478374
:103F60005087E0907103F090720300E010E0E80CDD
:103F7000F91C0A1D1B1DE38AF48A058B168B8091A0
:103F8000740390917503918F808F6091730370E03B
:103F900080E090E00E942E236E0D7F1D801F911FF8
:103FA000F601628F738F848F958F20917403309107
:103FB000750355E0220F331F5A95E1F721503E4F0C
:103FC000232F3327269540E050E0260F371F481F48
:103FD000591F26873787408B518B809176039091AC
:103FE0007703009719F0A0E0B0E008C08091830348
:103FF00090918403A0918503B0918603850174019B
:10400000E21AF30A040B150BA8019701280F391FB8
:104010004A1F5B1FF601058404C0569547953795E6
:1040200027950A94D2F72187328743875487253F03
:10403000FFE03F07F0E04F07F0E05F0710F48CE08F
:1040400006C0255F3F4F4040504028F480E1F60114
:10405000878B81E010C080918F0390919003A09195
:104060009103B0919203F601828F938FA48FB58F45
:1040700080E2EECF80E0DF91CF911F910F91FF9012
:10408000EF90DF90CF90BF90AF909F908F9008956A
:104090004F925F926F927F928F929F92AF92BF9258
:1040A000CF92DF92EF92FF920F931F93CF93DF9304
:1040B000EC016A017B01280139014230510561059B
:1040C000710508F46FC089859A85AB85BC8501961A
:1040D000A11DB11D84179507A607B70708F462C094
:1040E0002B893C894D895E898F89803129F49927F4
:1040F0008F2D7E2D6D2D09C0C701B60117E0969555
:104100008795779567951A95D1F74B015C01820EDB
:10411000931EA41EB51E8091A5019091A601A091A9
:10412000A701B091A80188169906AA06BB0639F026
:10413000C501B40140E00E94C81E882399F18F890F
:10414000803149F4F601F070EE0FFF1FED59FC4F7E
:10415000518240820DC0F601EF77F070EE0FFF1F25
:10416000EE0FFF1FED59FC4F408251826282738235
:10417000809165058160809365058A89823080F031
:104180008D819E81AF81B885880E991EAA1EBB1EA7
:104190008092660590926705A0926805B0926905C5
:1041A00081E001C080E0DF91CF911F910F91FF90DE
:1041B000EF90DF90CF90BF90AF909F908F907F90C7
:1041C0006F905F904F900895CF92DF92EF92FF92A1
:1041D0000F931F93CF93DF93EC017A018B01690159
:1041E00089859A85AB85BC850196A11DB11D841773
:1041F0009507A607B70708F450C02B893C894D895D
:104200005E898F89803129F49927812F702F6F2D36
:1042100009C0C801B701E7E096958795779567953E
:10422000EA95D1F7260F371F481F591F8091A50126
:104230009091A601A091A701B091A8012817390774
:104240004A075B0739F0CA01B90140E00E94C81E65
:10425000882319F18F89803159F4F701F070EE0F3E
:10426000FF1FED59FC4F80819181A0E0B0E00EC0AE
:10427000F701EF77F070EE0FFF1FEE0FFF1FED5904
:10428000FC4F80819181A281B381BF70F601808350
:104290009183A283B38381E001C080E0DF91CF915D
:1042A0001F910F91FF90EF90DF90CF900895AF9204
:1042B000BF92CF92DF92EF92FF920F931F93DF9303
:1042C000CF9300D000D0CDB7DEB76C017A018B015F
:1042D00082E090E0A0E0B0E0F60180839183A283C9
:1042E000B3835E010894A11CB11CC601B801A701EB
:1042F00095010E94E420882319F1C601B801A701A5
:1043000000E010E020E030E00E9448208823C1F067
:10431000E980FA800B811C81F6018789803129F0C0
:1043200088EF9FEFAFEFBFE004C088EF9FEFA0E002
:10433000B0E0E816F9060A071B07B8F281E001C0F1
:1043400080E00F900F900F900F90CF91DF911F9111
:104350000F91FF90EF90DF90CF90BF90AF900895B6
:104360004F925F926F927F928F929F92AF92BF9285
:10437000CF92DF92EF92FF920F931F93DF93CF9331
:1043800000D000D0CDB7DEB76C0149835A836B8370
:104390007C833901EE24FF2487012E010894411CFF
:1043A000511C812CA2E09A2EA12CB12C49815A815A
:1043B0006B817C81C60192010E94E420882351F127
:1043C000D501C401F601058404C0880F991FAA1FF6
:1043D000BB1F0A94D2F7E80EF91E0A1F1B1F298182
:1043E0003A814B815C818789803129F088EF9FEF8A
:1043F000AFEFBFE004C088EF9FEFA0E0B0E0281768
:1044000039074A075B0790F2F301E082F1820283E9
:10441000138381E00F900F900F900F90CF91DF9159
:104420001F910F91FF90EF90DF90CF90BF90AF90D2
:104430009F908F907F906F905F904F9008952F92F4
:104440003F924F925F926F927F928F929F92AF9224
:10445000BF92CF92DF92EF92FF920F931F93DF9361
:10446000CF93CDB7DEB72F970FB6F894DEBF0FBE50
:10447000CDBF1C014A875B876C877D873F872E876E
:10448000D9010D911D912D913C9101151105210529
:10449000310549F0480159010894811C911CA11C67
:1044A000B11C198610C0FC0180809180A280B3806D
:1044B00019868A859B85AC85BD850197A105B105C7
:1044C00011F491E09987D10119968D919D910D90EC
:1044D000BC91A02D0196A11DB11D8D839E83AF833C
:1044E000B887750164014424552432018E010F5FA1
:1044F0001F4FF10181859285A385B4854816590621
:104500006A067B0608F090C08D819E81AF81B885D8
:104510008C159D05AE05BF0550F482E0882E912CC8
:10452000A12CB12CB2E0CB2ED12CE12CF12CC1016D
:10453000B701A60198010E94E420882309F474C001
:1045400089819A81AB81BC81A70196012F5F3F4F82
:104550004F4F5F4F0097A105B10519F049015A016E
:104560000DC0281939094A095B098A859B85AC85E4
:10457000BD85281739074A075B0759F00894411C85
:10458000511C611C711C0894C11CD11CE11CF11C44
:10459000B0CFC101A601B7010FEF1FEF2FEF3FE032
:1045A0000E944820882399F43FC0260137010894CF
:1045B0004108510861087108C101B301A2019701C6
:1045C00086010E944820882379F1730162018C14CE
:1045D0009D04AE04BF0448F3AE85BF854D915D9147
:1045E0006D917C91411551056105710539F0C1014D
:1045F000950184010E9448208823B1F0EE85FF8553
:1046000080829182A282B382F985FF2359F00894B7
:10461000811C911CA11CB11CD1018D929D92AD9267
:10462000BC92139781E001C080E02F960FB6F894FA
:10463000DEBF0FBECDBFCF91DF911F910F91FF90D5
:10464000EF90DF90CF90BF90AF909F908F907F9032
:104650006F905F904F903F902F900895629FD00190
:10466000739FF001829FE00DF11D649FE00DF11D2D
:10467000929FF00D839FF00D749FF00D659FF00DDC
:104680009927729FB00DE11DF91F639FB00DE11DC9
:10469000F91FBD01CF0111240895A1E21A2EAA1B12
:1046A000BB1BFD010DC0AA1FBB1FEE1FFF1FA217E2
:1046B000B307E407F50720F0A21BB30BE40BF50BDF
:1046C000661F771F881F991F1A9469F76095709568
:1046D000809590959B01AC01BD01CF010895EE0F2F
:1046E000FF1F0590F491E02D0994AA1BBB1B51E11B
:1046F00007C0AA1FBB1FA617B70710F0A61BB70B52
:10470000881F991F5A95A9F780959095BC01CD01F6
:1047100008952F923F924F925F926F927F928F9265
:104720009F92AF92BF92CF92DF92EF92FF920F9340
:104730001F93CF93DF93CDB7DEB7CA1BDB0B0FB64A
:10474000F894DEBF0FBECDBF09942A883988488807
:104750005F846E847D848C849B84AA84B984C8849D
:10476000DF80EE80FD800C811B81AA81B981CE0F94
:10477000D11D0FB6F894DEBF0FBECDBFED01089579
:1047800010E0CAEDD0E004C0FE010E947123229621
:0A479000CC3DD107C9F7F894FFCF24
:10479A00696E697469616C697A6174696F6E2066A1
:1047AA0061696C65642100696E697469616C697A12
:1047BA006174696F6E20646F6E652E0063686F6F37
:1047CA0073653A000020505245535345442E002049
:1047DA00484F4C442E002052454C45415345442EE7
:1047EA00002049444C452E004B657920006F7065C6
:1047FA006E206469723A002066696C653A002F007F
:10480A002E776176002E6D703300706C6179656465
:10481A00206F7665720D0A002F0020006E050000D9
:10482A0001013132333435363738392A3023070219
:10483A000306050804FFFFFFFF00000000E105DC96
:10484A0005D805000000005C0F310CF20E230F039F
:10485A000F4C0F000000009B126513B3120B1329B3
:0C486A0013F61200000000E019310C00F1
:00000001FF
